{
  "_format": "hh-sol-artifact-1",
  "contractName": "AssassinNFT",
  "sourceName": "contracts/AssassinNFT.sol",
  "abi": [
    {
      "inputs": [
        {
          "internalType": "address[]",
          "name": "_allowList",
          "type": "address[]"
        }
      ],
      "stateMutability": "nonpayable",
      "type": "constructor"
    },
    {
      "inputs": [],
      "name": "AllowListMintNotOpen",
      "type": "error"
    },
    {
      "inputs": [],
      "name": "ERC721EnumerableForbiddenBatchMint",
      "type": "error"
    },
    {
      "inputs": [
        {
          "internalType": "address",
          "name": "sender",
          "type": "address"
        },
        {
          "internalType": "uint256",
          "name": "tokenId",
          "type": "uint256"
        },
        {
          "internalType": "address",
          "name": "owner",
          "type": "address"
        }
      ],
      "name": "ERC721IncorrectOwner",
      "type": "error"
    },
    {
      "inputs": [
        {
          "internalType": "address",
          "name": "operator",
          "type": "address"
        },
        {
          "internalType": "uint256",
          "name": "tokenId",
          "type": "uint256"
        }
      ],
      "name": "ERC721InsufficientApproval",
      "type": "error"
    },
    {
      "inputs": [
        {
          "internalType": "address",
          "name": "approver",
          "type": "address"
        }
      ],
      "name": "ERC721InvalidApprover",
      "type": "error"
    },
    {
      "inputs": [
        {
          "internalType": "address",
          "name": "operator",
          "type": "address"
        }
      ],
      "name": "ERC721InvalidOperator",
      "type": "error"
    },
    {
      "inputs": [
        {
          "internalType": "address",
          "name": "owner",
          "type": "address"
        }
      ],
      "name": "ERC721InvalidOwner",
      "type": "error"
    },
    {
      "inputs": [
        {
          "internalType": "address",
          "name": "receiver",
          "type": "address"
        }
      ],
      "name": "ERC721InvalidReceiver",
      "type": "error"
    },
    {
      "inputs": [
        {
          "internalType": "address",
          "name": "sender",
          "type": "address"
        }
      ],
      "name": "ERC721InvalidSender",
      "type": "error"
    },
    {
      "inputs": [
        {
          "internalType": "uint256",
          "name": "tokenId",
          "type": "uint256"
        }
      ],
      "name": "ERC721NonexistentToken",
      "type": "error"
    },
    {
      "inputs": [
        {
          "internalType": "address",
          "name": "owner",
          "type": "address"
        },
        {
          "internalType": "uint256",
          "name": "index",
          "type": "uint256"
        }
      ],
      "name": "ERC721OutOfBoundsIndex",
      "type": "error"
    },
    {
      "inputs": [],
      "name": "EnforcedPause",
      "type": "error"
    },
    {
      "inputs": [],
      "name": "ExpectedPause",
      "type": "error"
    },
    {
      "inputs": [],
      "name": "NotEnoughFund",
      "type": "error"
    },
    {
      "inputs": [],
      "name": "NotInAllowList",
      "type": "error"
    },
    {
      "inputs": [
        {
          "internalType": "address",
          "name": "owner",
          "type": "address"
        }
      ],
      "name": "OwnableInvalidOwner",
      "type": "error"
    },
    {
      "inputs": [
        {
          "internalType": "address",
          "name": "account",
          "type": "address"
        }
      ],
      "name": "OwnableUnauthorizedAccount",
      "type": "error"
    },
    {
      "inputs": [],
      "name": "PublicMintNotOpen",
      "type": "error"
    },
    {
      "anonymous": false,
      "inputs": [
        {
          "indexed": true,
          "internalType": "address",
          "name": "owner",
          "type": "address"
        },
        {
          "indexed": true,
          "internalType": "address",
          "name": "approved",
          "type": "address"
        },
        {
          "indexed": true,
          "internalType": "uint256",
          "name": "tokenId",
          "type": "uint256"
        }
      ],
      "name": "Approval",
      "type": "event"
    },
    {
      "anonymous": false,
      "inputs": [
        {
          "indexed": true,
          "internalType": "address",
          "name": "owner",
          "type": "address"
        },
        {
          "indexed": true,
          "internalType": "address",
          "name": "operator",
          "type": "address"
        },
        {
          "indexed": false,
          "internalType": "bool",
          "name": "approved",
          "type": "bool"
        }
      ],
      "name": "ApprovalForAll",
      "type": "event"
    },
    {
      "anonymous": false,
      "inputs": [
        {
          "indexed": false,
          "internalType": "uint256",
          "name": "_fromTokenId",
          "type": "uint256"
        },
        {
          "indexed": false,
          "internalType": "uint256",
          "name": "_toTokenId",
          "type": "uint256"
        }
      ],
      "name": "BatchMetadataUpdate",
      "type": "event"
    },
    {
      "anonymous": false,
      "inputs": [
        {
          "indexed": false,
          "internalType": "uint256",
          "name": "_tokenId",
          "type": "uint256"
        }
      ],
      "name": "MetadataUpdate",
      "type": "event"
    },
    {
      "anonymous": false,
      "inputs": [
        {
          "indexed": false,
          "internalType": "uint256",
          "name": "tokenId",
          "type": "uint256"
        },
        {
          "indexed": false,
          "internalType": "address",
          "name": "by",
          "type": "address"
        }
      ],
      "name": "NftMinted",
      "type": "event"
    },
    {
      "anonymous": false,
      "inputs": [
        {
          "indexed": true,
          "internalType": "address",
          "name": "previousOwner",
          "type": "address"
        },
        {
          "indexed": true,
          "internalType": "address",
          "name": "newOwner",
          "type": "address"
        }
      ],
      "name": "OwnershipTransferred",
      "type": "event"
    },
    {
      "anonymous": false,
      "inputs": [
        {
          "indexed": false,
          "internalType": "address",
          "name": "account",
          "type": "address"
        }
      ],
      "name": "Paused",
      "type": "event"
    },
    {
      "anonymous": false,
      "inputs": [
        {
          "indexed": true,
          "internalType": "address",
          "name": "from",
          "type": "address"
        },
        {
          "indexed": true,
          "internalType": "address",
          "name": "to",
          "type": "address"
        },
        {
          "indexed": true,
          "internalType": "uint256",
          "name": "tokenId",
          "type": "uint256"
        }
      ],
      "name": "Transfer",
      "type": "event"
    },
    {
      "anonymous": false,
      "inputs": [
        {
          "indexed": false,
          "internalType": "address",
          "name": "account",
          "type": "address"
        }
      ],
      "name": "Unpaused",
      "type": "event"
    },
    {
      "inputs": [
        {
          "internalType": "address",
          "name": "",
          "type": "address"
        }
      ],
      "name": "allowList",
      "outputs": [
        {
          "internalType": "bool",
          "name": "",
          "type": "bool"
        }
      ],
      "stateMutability": "view",
      "type": "function"
    },
    {
      "inputs": [
        {
          "internalType": "address",
          "name": "to",
          "type": "address"
        },
        {
          "internalType": "string",
          "name": "uri",
          "type": "string"
        }
      ],
      "name": "allowListMint",
      "outputs": [],
      "stateMutability": "payable",
      "type": "function"
    },
    {
      "inputs": [],
      "name": "allowListMintNftPrice",
      "outputs": [
        {
          "internalType": "uint256",
          "name": "",
          "type": "uint256"
        }
      ],
      "stateMutability": "view",
      "type": "function"
    },
    {
      "inputs": [
        {
          "internalType": "address",
          "name": "to",
          "type": "address"
        },
        {
          "internalType": "uint256",
          "name": "tokenId",
          "type": "uint256"
        }
      ],
      "name": "approve",
      "outputs": [],
      "stateMutability": "nonpayable",
      "type": "function"
    },
    {
      "inputs": [
        {
          "internalType": "address",
          "name": "owner",
          "type": "address"
        }
      ],
      "name": "balanceOf",
      "outputs": [
        {
          "internalType": "uint256",
          "name": "",
          "type": "uint256"
        }
      ],
      "stateMutability": "view",
      "type": "function"
    },
    {
      "inputs": [
        {
          "internalType": "bool",
          "name": "_isPublicMintOpen",
          "type": "bool"
        },
        {
          "internalType": "bool",
          "name": "_isAllowListMintOpen",
          "type": "bool"
        }
      ],
      "name": "editMintOpen",
      "outputs": [],
      "stateMutability": "nonpayable",
      "type": "function"
    },
    {
      "inputs": [
        {
          "internalType": "uint256",
          "name": "_publicMintNftPrice",
          "type": "uint256"
        },
        {
          "internalType": "uint256",
          "name": "_allowListMintNftPrice",
          "type": "uint256"
        }
      ],
      "name": "editNftPrice",
      "outputs": [],
      "stateMutability": "nonpayable",
      "type": "function"
    },
    {
      "inputs": [
        {
          "internalType": "uint256",
          "name": "tokenId",
          "type": "uint256"
        }
      ],
      "name": "getApproved",
      "outputs": [
        {
          "internalType": "address",
          "name": "",
          "type": "address"
        }
      ],
      "stateMutability": "view",
      "type": "function"
    },
    {
      "inputs": [],
      "name": "getCurrentTokenId",
      "outputs": [
        {
          "internalType": "uint256",
          "name": "",
          "type": "uint256"
        }
      ],
      "stateMutability": "view",
      "type": "function"
    },
    {
      "inputs": [],
      "name": "isAllowListMintOpen",
      "outputs": [
        {
          "internalType": "bool",
          "name": "",
          "type": "bool"
        }
      ],
      "stateMutability": "view",
      "type": "function"
    },
    {
      "inputs": [
        {
          "internalType": "address",
          "name": "owner",
          "type": "address"
        },
        {
          "internalType": "address",
          "name": "operator",
          "type": "address"
        }
      ],
      "name": "isApprovedForAll",
      "outputs": [
        {
          "internalType": "bool",
          "name": "",
          "type": "bool"
        }
      ],
      "stateMutability": "view",
      "type": "function"
    },
    {
      "inputs": [],
      "name": "isPublicMintOpen",
      "outputs": [
        {
          "internalType": "bool",
          "name": "",
          "type": "bool"
        }
      ],
      "stateMutability": "view",
      "type": "function"
    },
    {
      "inputs": [],
      "name": "name",
      "outputs": [
        {
          "internalType": "string",
          "name": "",
          "type": "string"
        }
      ],
      "stateMutability": "view",
      "type": "function"
    },
    {
      "inputs": [],
      "name": "owner",
      "outputs": [
        {
          "internalType": "address",
          "name": "",
          "type": "address"
        }
      ],
      "stateMutability": "view",
      "type": "function"
    },
    {
      "inputs": [
        {
          "internalType": "uint256",
          "name": "tokenId",
          "type": "uint256"
        }
      ],
      "name": "ownerOf",
      "outputs": [
        {
          "internalType": "address",
          "name": "",
          "type": "address"
        }
      ],
      "stateMutability": "view",
      "type": "function"
    },
    {
      "inputs": [],
      "name": "pause",
      "outputs": [],
      "stateMutability": "nonpayable",
      "type": "function"
    },
    {
      "inputs": [],
      "name": "paused",
      "outputs": [
        {
          "internalType": "bool",
          "name": "",
          "type": "bool"
        }
      ],
      "stateMutability": "view",
      "type": "function"
    },
    {
      "inputs": [
        {
          "internalType": "address",
          "name": "to",
          "type": "address"
        },
        {
          "internalType": "string",
          "name": "uri",
          "type": "string"
        }
      ],
      "name": "publicMint",
      "outputs": [],
      "stateMutability": "payable",
      "type": "function"
    },
    {
      "inputs": [],
      "name": "publicMintNftPrice",
      "outputs": [
        {
          "internalType": "uint256",
          "name": "",
          "type": "uint256"
        }
      ],
      "stateMutability": "view",
      "type": "function"
    },
    {
      "inputs": [],
      "name": "renounceOwnership",
      "outputs": [],
      "stateMutability": "nonpayable",
      "type": "function"
    },
    {
      "inputs": [
        {
          "internalType": "address",
          "name": "from",
          "type": "address"
        },
        {
          "internalType": "address",
          "name": "to",
          "type": "address"
        },
        {
          "internalType": "uint256",
          "name": "tokenId",
          "type": "uint256"
        }
      ],
      "name": "safeTransferFrom",
      "outputs": [],
      "stateMutability": "nonpayable",
      "type": "function"
    },
    {
      "inputs": [
        {
          "internalType": "address",
          "name": "from",
          "type": "address"
        },
        {
          "internalType": "address",
          "name": "to",
          "type": "address"
        },
        {
          "internalType": "uint256",
          "name": "tokenId",
          "type": "uint256"
        },
        {
          "internalType": "bytes",
          "name": "data",
          "type": "bytes"
        }
      ],
      "name": "safeTransferFrom",
      "outputs": [],
      "stateMutability": "nonpayable",
      "type": "function"
    },
    {
      "inputs": [
        {
          "internalType": "address",
          "name": "operator",
          "type": "address"
        },
        {
          "internalType": "bool",
          "name": "approved",
          "type": "bool"
        }
      ],
      "name": "setApprovalForAll",
      "outputs": [],
      "stateMutability": "nonpayable",
      "type": "function"
    },
    {
      "inputs": [
        {
          "internalType": "bytes4",
          "name": "interfaceId",
          "type": "bytes4"
        }
      ],
      "name": "supportsInterface",
      "outputs": [
        {
          "internalType": "bool",
          "name": "",
          "type": "bool"
        }
      ],
      "stateMutability": "view",
      "type": "function"
    },
    {
      "inputs": [],
      "name": "symbol",
      "outputs": [
        {
          "internalType": "string",
          "name": "",
          "type": "string"
        }
      ],
      "stateMutability": "view",
      "type": "function"
    },
    {
      "inputs": [
        {
          "internalType": "uint256",
          "name": "index",
          "type": "uint256"
        }
      ],
      "name": "tokenByIndex",
      "outputs": [
        {
          "internalType": "uint256",
          "name": "",
          "type": "uint256"
        }
      ],
      "stateMutability": "view",
      "type": "function"
    },
    {
      "inputs": [
        {
          "internalType": "address",
          "name": "owner",
          "type": "address"
        },
        {
          "internalType": "uint256",
          "name": "index",
          "type": "uint256"
        }
      ],
      "name": "tokenOfOwnerByIndex",
      "outputs": [
        {
          "internalType": "uint256",
          "name": "",
          "type": "uint256"
        }
      ],
      "stateMutability": "view",
      "type": "function"
    },
    {
      "inputs": [
        {
          "internalType": "uint256",
          "name": "tokenId",
          "type": "uint256"
        }
      ],
      "name": "tokenURI",
      "outputs": [
        {
          "internalType": "string",
          "name": "",
          "type": "string"
        }
      ],
      "stateMutability": "view",
      "type": "function"
    },
    {
      "inputs": [],
      "name": "totalSupply",
      "outputs": [
        {
          "internalType": "uint256",
          "name": "",
          "type": "uint256"
        }
      ],
      "stateMutability": "view",
      "type": "function"
    },
    {
      "inputs": [
        {
          "internalType": "address",
          "name": "from",
          "type": "address"
        },
        {
          "internalType": "address",
          "name": "to",
          "type": "address"
        },
        {
          "internalType": "uint256",
          "name": "tokenId",
          "type": "uint256"
        }
      ],
      "name": "transferFrom",
      "outputs": [],
      "stateMutability": "nonpayable",
      "type": "function"
    },
    {
      "inputs": [
        {
          "internalType": "address",
          "name": "newOwner",
          "type": "address"
        }
      ],
      "name": "transferOwnership",
      "outputs": [],
      "stateMutability": "nonpayable",
      "type": "function"
    },
    {
      "inputs": [],
      "name": "unpause",
      "outputs": [],
      "stateMutability": "nonpayable",
      "type": "function"
    },
    {
      "inputs": [],
      "name": "withdraw",
      "outputs": [],
      "stateMutability": "nonpayable",
      "type": "function"
    }
  ],
  "bytecode": "0x60806040526413ca651200600d556405d21dba00600e556000600f60006101000a81548160ff0219169083151502179055506000600f60016101000a81548160ff0219169083151502179055503480156200005957600080fd5b50604051620040633803806200406383398181016040528101906200007f919062000500565b336040518060400160405280600881526020017f417373617373696e0000000000000000000000000000000000000000000000008152506040518060400160405280600381526020017f41535300000000000000000000000000000000000000000000000000000000008152508160009081620000fd91906200079c565b5080600190816200010f91906200079c565b5050506000600a60006101000a81548160ff021916908315150217905550600073ffffffffffffffffffffffffffffffffffffffff168173ffffffffffffffffffffffffffffffffffffffff1603620001a25760006040517f1e4fbdf700000000000000000000000000000000000000000000000000000000815260040162000199919062000894565b60405180910390fd5b620001b3816200024c60201b60201c565b5060005b81518110156200024457600160106000848481518110620001dd57620001dc620008b1565b5b602002602001015173ffffffffffffffffffffffffffffffffffffffff1673ffffffffffffffffffffffffffffffffffffffff16815260200190815260200160002060006101000a81548160ff0219169083151502179055508080600101915050620001b7565b5050620008e0565b6000600a60019054906101000a900473ffffffffffffffffffffffffffffffffffffffff16905081600a60016101000a81548173ffffffffffffffffffffffffffffffffffffffff021916908373ffffffffffffffffffffffffffffffffffffffff1602179055508173ffffffffffffffffffffffffffffffffffffffff168173ffffffffffffffffffffffffffffffffffffffff167f8be0079c531659141344cd1fd0a4f28419497f9722a3daafe3b4186f6b6457e060405160405180910390a35050565b6000604051905090565b600080fd5b600080fd5b600080fd5b6000601f19601f8301169050919050565b7f4e487b7100000000000000000000000000000000000000000000000000000000600052604160045260246000fd5b62000376826200032b565b810181811067ffffffffffffffff821117156200039857620003976200033c565b5b80604052505050565b6000620003ad62000312565b9050620003bb82826200036b565b919050565b600067ffffffffffffffff821115620003de57620003dd6200033c565b5b602082029050602081019050919050565b600080fd5b600073ffffffffffffffffffffffffffffffffffffffff82169050919050565b60006200042182620003f4565b9050919050565b620004338162000414565b81146200043f57600080fd5b50565b600081519050620004538162000428565b92915050565b6000620004706200046a84620003c0565b620003a1565b90508083825260208201905060208402830185811115620004965762000495620003ef565b5b835b81811015620004c35780620004ae888262000442565b84526020840193505060208101905062000498565b5050509392505050565b600082601f830112620004e557620004e462000326565b5b8151620004f784826020860162000459565b91505092915050565b6000602082840312156200051957620005186200031c565b5b600082015167ffffffffffffffff8111156200053a576200053962000321565b5b6200054884828501620004cd565b91505092915050565b600081519050919050565b7f4e487b7100000000000000000000000000000000000000000000000000000000600052602260045260246000fd5b60006002820490506001821680620005a457607f821691505b602082108103620005ba57620005b96200055c565b5b50919050565b60008190508160005260206000209050919050565b60006020601f8301049050919050565b600082821b905092915050565b600060088302620006247fffffffffffffffffffffffffffffffffffffffffffffffffffffffffffffffff82620005e5565b620006308683620005e5565b95508019841693508086168417925050509392505050565b6000819050919050565b6000819050919050565b60006200067d62000677620006718462000648565b62000652565b62000648565b9050919050565b6000819050919050565b62000699836200065c565b620006b1620006a88262000684565b848454620005f2565b825550505050565b600090565b620006c8620006b9565b620006d58184846200068e565b505050565b5b81811015620006fd57620006f1600082620006be565b600181019050620006db565b5050565b601f8211156200074c576200071681620005c0565b6200072184620005d5565b8101602085101562000731578190505b620007496200074085620005d5565b830182620006da565b50505b505050565b600082821c905092915050565b6000620007716000198460080262000751565b1980831691505092915050565b60006200078c83836200075e565b9150826002028217905092915050565b620007a78262000551565b67ffffffffffffffff811115620007c357620007c26200033c565b5b620007cf82546200058b565b620007dc82828562000701565b600060209050601f831160018114620008145760008415620007ff578287015190505b6200080b85826200077e565b8655506200087b565b601f1984166200082486620005c0565b60005b828110156200084e5784890151825560018201915060208501945060208101905062000827565b868310156200086e57848901516200086a601f8916826200075e565b8355505b6001600288020188555050505b505050505050565b6200088e8162000414565b82525050565b6000602082019050620008ab600083018462000883565b92915050565b7f4e487b7100000000000000000000000000000000000000000000000000000000600052603260045260246000fd5b61377380620008f06000396000f3fe6080604052600436106101ee5760003560e01c806370a082311161010d578063a25bfeb7116100a0578063c87b56dd1161006f578063c87b56dd146106ab578063d6cfdf90146106e8578063d9a98e2914610713578063e985e9c51461073c578063f2fde38b14610779576101ee565b8063a25bfeb714610610578063a4435dfd1461062c578063b88d4fde14610657578063bda742d314610680576101ee565b806387a0c763116100dc57806387a0c763146105685780638da5cb5b1461059157806395d89b41146105bc578063a22cb465146105e7576101ee565b806370a08231146104d2578063715018a61461050f57806383b96e2e146105265780638456cb5914610551576101ee565b80633ccfd60b11610185578063561892361161015457806356189236146104235780635b4987361461044e5780635c975abb1461046a5780636352211e14610495576101ee565b80633ccfd60b1461038f5780633f4ba83a146103a657806342842e0e146103bd5780634f6ccce7146103e6576101ee565b806318160ddd116101c157806318160ddd146102c157806323b872dd146102ec5780632848aeaf146103155780632f745c5914610352576101ee565b806301ffc9a7146101f357806306fdde0314610230578063081812fc1461025b578063095ea7b314610298575b600080fd5b3480156101ff57600080fd5b5061021a600480360381019061021591906129de565b6107a2565b6040516102279190612a26565b60405180910390f35b34801561023c57600080fd5b506102456107b4565b6040516102529190612ad1565b60405180910390f35b34801561026757600080fd5b50610282600480360381019061027d9190612b29565b610846565b60405161028f9190612b97565b60405180910390f35b3480156102a457600080fd5b506102bf60048036038101906102ba9190612bde565b610862565b005b3480156102cd57600080fd5b506102d6610878565b6040516102e39190612c2d565b60405180910390f35b3480156102f857600080fd5b50610313600480360381019061030e9190612c48565b610885565b005b34801561032157600080fd5b5061033c60048036038101906103379190612c9b565b610987565b6040516103499190612a26565b60405180910390f35b34801561035e57600080fd5b5061037960048036038101906103749190612bde565b6109a7565b6040516103869190612c2d565b60405180910390f35b34801561039b57600080fd5b506103a4610a50565b005b3480156103b257600080fd5b506103bb610b07565b005b3480156103c957600080fd5b506103e460048036038101906103df9190612c48565b610b19565b005b3480156103f257600080fd5b5061040d60048036038101906104089190612b29565b610b39565b60405161041a9190612c2d565b60405180910390f35b34801561042f57600080fd5b50610438610baf565b6040516104459190612c2d565b60405180910390f35b61046860048036038101906104639190612dfd565b610bb9565b005b34801561047657600080fd5b5061047f610ccb565b60405161048c9190612a26565b60405180910390f35b3480156104a157600080fd5b506104bc60048036038101906104b79190612b29565b610ce2565b6040516104c99190612b97565b60405180910390f35b3480156104de57600080fd5b506104f960048036038101906104f49190612c9b565b610cf4565b6040516105069190612c2d565b60405180910390f35b34801561051b57600080fd5b50610524610dae565b005b34801561053257600080fd5b5061053b610dc2565b6040516105489190612a26565b60405180910390f35b34801561055d57600080fd5b50610566610dd5565b005b34801561057457600080fd5b5061058f600480360381019061058a9190612e85565b610de7565b005b34801561059d57600080fd5b506105a6610e27565b6040516105b39190612b97565b60405180910390f35b3480156105c857600080fd5b506105d1610e51565b6040516105de9190612ad1565b60405180910390f35b3480156105f357600080fd5b5061060e60048036038101906106099190612ec5565b610ee3565b005b61062a60048036038101906106259190612dfd565b610ef9565b005b34801561063857600080fd5b50610641610f88565b60405161064e9190612a26565b60405180910390f35b34801561066357600080fd5b5061067e60048036038101906106799190612fa6565b610f9b565b005b34801561068c57600080fd5b50610695610fb8565b6040516106a29190612c2d565b60405180910390f35b3480156106b757600080fd5b506106d260048036038101906106cd9190612b29565b610fbe565b6040516106df9190612ad1565b60405180910390f35b3480156106f457600080fd5b506106fd610fd0565b60405161070a9190612c2d565b60405180910390f35b34801561071f57600080fd5b5061073a60048036038101906107359190613029565b610fd6565b005b34801561074857600080fd5b50610763600480360381019061075e9190613069565b610ff0565b6040516107709190612a26565b60405180910390f35b34801561078557600080fd5b506107a0600480360381019061079b9190612c9b565b611084565b005b60006107ad8261110a565b9050919050565b6060600080546107c3906130d8565b80601f01602080910402602001604051908101604052809291908181526020018280546107ef906130d8565b801561083c5780601f106108115761010080835404028352916020019161083c565b820191906000526020600020905b81548152906001019060200180831161081f57829003601f168201915b5050505050905090565b60006108518261116b565b5061085b826111f3565b9050919050565b610874828261086f611230565b611238565b5050565b6000600880549050905090565b600073ffffffffffffffffffffffffffffffffffffffff168273ffffffffffffffffffffffffffffffffffffffff16036108f75760006040517f64a0ae920000000000000000000000000000000000000000000000000000000081526004016108ee9190612b97565b60405180910390fd5b600061090b8383610906611230565b61124a565b90508373ffffffffffffffffffffffffffffffffffffffff168173ffffffffffffffffffffffffffffffffffffffff1614610981578382826040517f64283d7b00000000000000000000000000000000000000000000000000000000815260040161097893929190613109565b60405180910390fd5b50505050565b60106020528060005260406000206000915054906101000a900460ff1681565b60006109b283610cf4565b82106109f75782826040517fa57d13dc0000000000000000000000000000000000000000000000000000000081526004016109ee929190613140565b60405180910390fd5b600660008473ffffffffffffffffffffffffffffffffffffffff1673ffffffffffffffffffffffffffffffffffffffff168152602001908152602001600020600083815260200190815260200160002054905092915050565b610a58611260565b60003373ffffffffffffffffffffffffffffffffffffffff1647604051610a7e9061319a565b60006040518083038185875af1925050503d8060008114610abb576040519150601f19603f3d011682016040523d82523d6000602084013e610ac0565b606091505b5050905080610b04576040517f08c379a0000000000000000000000000000000000000000000000000000000008152600401610afb906131fb565b60405180910390fd5b50565b610b0f611260565b610b176112e7565b565b610b3483838360405180602001604052806000815250610f9b565b505050565b6000610b43610878565b8210610b89576000826040517fa57d13dc000000000000000000000000000000000000000000000000000000008152600401610b80929190613140565b60405180910390fd5b60088281548110610b9d57610b9c61321b565b5b90600052602060002001549050919050565b6000600c54905090565b600f60019054906101000a900460ff16610bff576040517fc3535ab100000000000000000000000000000000000000000000000000000000815260040160405180910390fd5b600e543414610c3a576040517f4a531cfd00000000000000000000000000000000000000000000000000000000815260040160405180910390fd5b601060003373ffffffffffffffffffffffffffffffffffffffff1673ffffffffffffffffffffffffffffffffffffffff16815260200190815260200160002060009054906101000a900460ff16610cbd576040517fe0e6520900000000000000000000000000000000000000000000000000000000815260040160405180910390fd5b610cc7828261134a565b5050565b6000600a60009054906101000a900460ff16905090565b6000610ced8261116b565b9050919050565b60008073ffffffffffffffffffffffffffffffffffffffff168273ffffffffffffffffffffffffffffffffffffffff1603610d675760006040517f89c62b64000000000000000000000000000000000000000000000000000000008152600401610d5e9190612b97565b60405180910390fd5b600360008373ffffffffffffffffffffffffffffffffffffffff1673ffffffffffffffffffffffffffffffffffffffff168152602001908152602001600020549050919050565b610db6611260565b610dc060006113b7565b565b600f60019054906101000a900460ff1681565b610ddd611260565b610de561147d565b565b610def611260565b81600f60006101000a81548160ff02191690831515021790555080600f60016101000a81548160ff0219169083151502179055505050565b6000600a60019054906101000a900473ffffffffffffffffffffffffffffffffffffffff16905090565b606060018054610e60906130d8565b80601f0160208091040260200160405190810160405280929190818152602001828054610e8c906130d8565b8015610ed95780601f10610eae57610100808354040283529160200191610ed9565b820191906000526020600020905b815481529060010190602001808311610ebc57829003601f168201915b5050505050905090565b610ef5610eee611230565b83836114e0565b5050565b600f60009054906101000a900460ff16610f3f576040517f22e3aa0800000000000000000000000000000000000000000000000000000000815260040160405180910390fd5b600d543414610f7a576040517f4a531cfd00000000000000000000000000000000000000000000000000000000815260040160405180910390fd5b610f84828261134a565b5050565b600f60009054906101000a900460ff1681565b610fa6848484610885565b610fb28484848461164f565b50505050565b600e5481565b6060610fc982611806565b9050919050565b600d5481565b610fde611260565b81600d8190555080600e819055505050565b6000600560008473ffffffffffffffffffffffffffffffffffffffff1673ffffffffffffffffffffffffffffffffffffffff16815260200190815260200160002060008373ffffffffffffffffffffffffffffffffffffffff1673ffffffffffffffffffffffffffffffffffffffff16815260200190815260200160002060009054906101000a900460ff16905092915050565b61108c611260565b600073ffffffffffffffffffffffffffffffffffffffff168173ffffffffffffffffffffffffffffffffffffffff16036110fe5760006040517f1e4fbdf70000000000000000000000000000000000000000000000000000000081526004016110f59190612b97565b60405180910390fd5b611107816113b7565b50565b6000634906490660e01b7bffffffffffffffffffffffffffffffffffffffffffffffffffffffff1916827bffffffffffffffffffffffffffffffffffffffffffffffffffffffff19161480611164575061116382611919565b5b9050919050565b60008061117783611993565b9050600073ffffffffffffffffffffffffffffffffffffffff168173ffffffffffffffffffffffffffffffffffffffff16036111ea57826040517f7e2732890000000000000000000000000000000000000000000000000000000081526004016111e19190612c2d565b60405180910390fd5b80915050919050565b60006004600083815260200190815260200160002060009054906101000a900473ffffffffffffffffffffffffffffffffffffffff169050919050565b600033905090565b61124583838360016119d0565b505050565b6000611257848484611b95565b90509392505050565b611268611230565b73ffffffffffffffffffffffffffffffffffffffff16611286610e27565b73ffffffffffffffffffffffffffffffffffffffff16146112e5576112a9611230565b6040517f118cdaa70000000000000000000000000000000000000000000000000000000081526004016112dc9190612b97565b60405180910390fd5b565b6112ef611bb3565b6000600a60006101000a81548160ff0219169083151502179055507f5db9ee0a495bf2e6ff9c91a7834c1ba4fdd244a5e8aa4e537bd38aeae4b073aa611333611230565b6040516113409190612b97565b60405180910390a1565b6000600c600081548092919061135f90613279565b91905055905061136f8382611bf3565b6113798183611c11565b7f769eff512f395b679667e0062a0e31dad5d22dbc7e6b87f16c3de7e85e66346081336040516113aa9291906132c1565b60405180910390a1505050565b6000600a60019054906101000a900473ffffffffffffffffffffffffffffffffffffffff16905081600a60016101000a81548173ffffffffffffffffffffffffffffffffffffffff021916908373ffffffffffffffffffffffffffffffffffffffff1602179055508173ffffffffffffffffffffffffffffffffffffffff168173ffffffffffffffffffffffffffffffffffffffff167f8be0079c531659141344cd1fd0a4f28419497f9722a3daafe3b4186f6b6457e060405160405180910390a35050565b611485611c6d565b6001600a60006101000a81548160ff0219169083151502179055507f62e78cea01bee320cd4e420270b5ea74000d11b0c9f74754ebdbfc544b05a2586114c9611230565b6040516114d69190612b97565b60405180910390a1565b600073ffffffffffffffffffffffffffffffffffffffff168273ffffffffffffffffffffffffffffffffffffffff160361155157816040517f5b08ba180000000000000000000000000000000000000000000000000000000081526004016115489190612b97565b60405180910390fd5b80600560008573ffffffffffffffffffffffffffffffffffffffff1673ffffffffffffffffffffffffffffffffffffffff16815260200190815260200160002060008473ffffffffffffffffffffffffffffffffffffffff1673ffffffffffffffffffffffffffffffffffffffff16815260200190815260200160002060006101000a81548160ff0219169083151502179055508173ffffffffffffffffffffffffffffffffffffffff168373ffffffffffffffffffffffffffffffffffffffff167f17307eab39ab6107e8899845ad3d59bd9653f200f220920489ca2b5937696c31836040516116429190612a26565b60405180910390a3505050565b60008373ffffffffffffffffffffffffffffffffffffffff163b1115611800578273ffffffffffffffffffffffffffffffffffffffff1663150b7a02611693611230565b8685856040518563ffffffff1660e01b81526004016116b5949392919061333f565b6020604051808303816000875af19250505080156116f157506040513d601f19601f820116820180604052508101906116ee91906133a0565b60015b611775573d8060008114611721576040519150601f19603f3d011682016040523d82523d6000602084013e611726565b606091505b50600081510361176d57836040517f64a0ae920000000000000000000000000000000000000000000000000000000081526004016117649190612b97565b60405180910390fd5b805181602001fd5b63150b7a0260e01b7bffffffffffffffffffffffffffffffffffffffffffffffffffffffff1916817bffffffffffffffffffffffffffffffffffffffffffffffffffffffff1916146117fe57836040517f64a0ae920000000000000000000000000000000000000000000000000000000081526004016117f59190612b97565b60405180910390fd5b505b50505050565b60606118118261116b565b506000600b60008481526020019081526020016000208054611832906130d8565b80601f016020809104026020016040519081016040528092919081815260200182805461185e906130d8565b80156118ab5780601f10611880576101008083540402835291602001916118ab565b820191906000526020600020905b81548152906001019060200180831161188e57829003601f168201915b5050505050905060006118bc611cae565b905060008151036118d1578192505050611914565b6000825111156119065780826040516020016118ee929190613409565b60405160208183030381529060405292505050611914565b61190f84611cc5565b925050505b919050565b60007f780e9d63000000000000000000000000000000000000000000000000000000007bffffffffffffffffffffffffffffffffffffffffffffffffffffffff1916827bffffffffffffffffffffffffffffffffffffffffffffffffffffffff1916148061198c575061198b82611d2e565b5b9050919050565b60006002600083815260200190815260200160002060009054906101000a900473ffffffffffffffffffffffffffffffffffffffff169050919050565b8080611a095750600073ffffffffffffffffffffffffffffffffffffffff168273ffffffffffffffffffffffffffffffffffffffff1614155b15611b3d576000611a198461116b565b9050600073ffffffffffffffffffffffffffffffffffffffff168373ffffffffffffffffffffffffffffffffffffffff1614158015611a8457508273ffffffffffffffffffffffffffffffffffffffff168173ffffffffffffffffffffffffffffffffffffffff1614155b8015611a975750611a958184610ff0565b155b15611ad957826040517fa9fbf51f000000000000000000000000000000000000000000000000000000008152600401611ad09190612b97565b60405180910390fd5b8115611b3b57838573ffffffffffffffffffffffffffffffffffffffff168273ffffffffffffffffffffffffffffffffffffffff167f8c5be1e5ebec7d5bd14f71427d1e84f3dd0314c0f7b2291e5b200ac8c7c3b92560405160405180910390a45b505b836004600085815260200190815260200160002060006101000a81548173ffffffffffffffffffffffffffffffffffffffff021916908373ffffffffffffffffffffffffffffffffffffffff16021790555050505050565b6000611b9f611c6d565b611baa848484611e10565b90509392505050565b611bbb610ccb565b611bf1576040517f8dfc202b00000000000000000000000000000000000000000000000000000000815260040160405180910390fd5b565b611c0d828260405180602001604052806000815250611f2d565b5050565b80600b60008481526020019081526020016000209081611c3191906135d9565b507ff8e1a15aba9398e019f0b49df1a4fde98ee17ae345cb5f6b5e2c27f5033e8ce782604051611c619190612c2d565b60405180910390a15050565b611c75610ccb565b15611cac576040517fd93c066500000000000000000000000000000000000000000000000000000000815260040160405180910390fd5b565b606060405180602001604052806000815250905090565b6060611cd08261116b565b506000611cdb611cae565b90506000815111611cfb5760405180602001604052806000815250611d26565b80611d0584611f49565b604051602001611d16929190613409565b6040516020818303038152906040525b915050919050565b60007f80ac58cd000000000000000000000000000000000000000000000000000000007bffffffffffffffffffffffffffffffffffffffffffffffffffffffff1916827bffffffffffffffffffffffffffffffffffffffffffffffffffffffff19161480611df957507f5b5e139f000000000000000000000000000000000000000000000000000000007bffffffffffffffffffffffffffffffffffffffffffffffffffffffff1916827bffffffffffffffffffffffffffffffffffffffffffffffffffffffff1916145b80611e095750611e0882612017565b5b9050919050565b600080611e1e858585612081565b9050600073ffffffffffffffffffffffffffffffffffffffff168173ffffffffffffffffffffffffffffffffffffffff1603611e6257611e5d8461229b565b611ea1565b8473ffffffffffffffffffffffffffffffffffffffff168173ffffffffffffffffffffffffffffffffffffffff1614611ea057611e9f81856122e4565b5b5b600073ffffffffffffffffffffffffffffffffffffffff168573ffffffffffffffffffffffffffffffffffffffff1603611ee357611ede84612445565b611f22565b8473ffffffffffffffffffffffffffffffffffffffff168173ffffffffffffffffffffffffffffffffffffffff1614611f2157611f208585612516565b5b5b809150509392505050565b611f3783836125a1565b611f44600084848461164f565b505050565b606060006001611f588461269a565b01905060008167ffffffffffffffff811115611f7757611f76612cd2565b5b6040519080825280601f01601f191660200182016040528015611fa95781602001600182028036833780820191505090505b509050600082602001820190505b60011561200c578080600190039150507f3031323334353637383961626364656600000000000000000000000000000000600a86061a8153600a858161200057611fff6136ab565b5b04945060008503611fb7575b819350505050919050565b60007f01ffc9a7000000000000000000000000000000000000000000000000000000007bffffffffffffffffffffffffffffffffffffffffffffffffffffffff1916827bffffffffffffffffffffffffffffffffffffffffffffffffffffffff1916149050919050565b60008061208d84611993565b9050600073ffffffffffffffffffffffffffffffffffffffff168373ffffffffffffffffffffffffffffffffffffffff16146120cf576120ce8184866127ed565b5b600073ffffffffffffffffffffffffffffffffffffffff168173ffffffffffffffffffffffffffffffffffffffff1614612160576121116000856000806119d0565b6001600360008373ffffffffffffffffffffffffffffffffffffffff1673ffffffffffffffffffffffffffffffffffffffff168152602001908152602001600020600082825403925050819055505b600073ffffffffffffffffffffffffffffffffffffffff168573ffffffffffffffffffffffffffffffffffffffff16146121e3576001600360008773ffffffffffffffffffffffffffffffffffffffff1673ffffffffffffffffffffffffffffffffffffffff168152602001908152602001600020600082825401925050819055505b846002600086815260200190815260200160002060006101000a81548173ffffffffffffffffffffffffffffffffffffffff021916908373ffffffffffffffffffffffffffffffffffffffff160217905550838573ffffffffffffffffffffffffffffffffffffffff168273ffffffffffffffffffffffffffffffffffffffff167fddf252ad1be2c89b69c2b068fc378daa952ba7f163c4a11628f55a4df523b3ef60405160405180910390a4809150509392505050565b6008805490506009600083815260200190815260200160002081905550600881908060018154018082558091505060019003906000526020600020016000909190919091505550565b60006122ef83610cf4565b90506000600760008481526020019081526020016000205490508181146123d4576000600660008673ffffffffffffffffffffffffffffffffffffffff1673ffffffffffffffffffffffffffffffffffffffff168152602001908152602001600020600084815260200190815260200160002054905080600660008773ffffffffffffffffffffffffffffffffffffffff1673ffffffffffffffffffffffffffffffffffffffff168152602001908152602001600020600084815260200190815260200160002081905550816007600083815260200190815260200160002081905550505b6007600084815260200190815260200160002060009055600660008573ffffffffffffffffffffffffffffffffffffffff1673ffffffffffffffffffffffffffffffffffffffff16815260200190815260200160002060008381526020019081526020016000206000905550505050565b6000600160088054905061245991906136da565b90506000600960008481526020019081526020016000205490506000600883815481106124895761248861321b565b5b9060005260206000200154905080600883815481106124ab576124aa61321b565b5b9060005260206000200181905550816009600083815260200190815260200160002081905550600960008581526020019081526020016000206000905560088054806124fa576124f961370e565b5b6001900381819060005260206000200160009055905550505050565b6000600161252384610cf4565b61252d91906136da565b905081600660008573ffffffffffffffffffffffffffffffffffffffff1673ffffffffffffffffffffffffffffffffffffffff168152602001908152602001600020600083815260200190815260200160002081905550806007600084815260200190815260200160002081905550505050565b600073ffffffffffffffffffffffffffffffffffffffff168273ffffffffffffffffffffffffffffffffffffffff16036126135760006040517f64a0ae9200000000000000000000000000000000000000000000000000000000815260040161260a9190612b97565b60405180910390fd5b60006126218383600061124a565b9050600073ffffffffffffffffffffffffffffffffffffffff168173ffffffffffffffffffffffffffffffffffffffff16146126955760006040517f73c6ac6e00000000000000000000000000000000000000000000000000000000815260040161268c9190612b97565b60405180910390fd5b505050565b600080600090507a184f03e93ff9f4daa797ed6e38ed64bf6a1f01000000000000000083106126f8577a184f03e93ff9f4daa797ed6e38ed64bf6a1f01000000000000000083816126ee576126ed6136ab565b5b0492506040810190505b6d04ee2d6d415b85acef81000000008310612735576d04ee2d6d415b85acef8100000000838161272b5761272a6136ab565b5b0492506020810190505b662386f26fc10000831061276457662386f26fc10000838161275a576127596136ab565b5b0492506010810190505b6305f5e100831061278d576305f5e1008381612783576127826136ab565b5b0492506008810190505b61271083106127b25761271083816127a8576127a76136ab565b5b0492506004810190505b606483106127d557606483816127cb576127ca6136ab565b5b0492506002810190505b600a83106127e4576001810190505b80915050919050565b6127f88383836128b1565b6128ac57600073ffffffffffffffffffffffffffffffffffffffff168373ffffffffffffffffffffffffffffffffffffffff160361286d57806040517f7e2732890000000000000000000000000000000000000000000000000000000081526004016128649190612c2d565b60405180910390fd5b81816040517f177e802f0000000000000000000000000000000000000000000000000000000081526004016128a3929190613140565b60405180910390fd5b505050565b60008073ffffffffffffffffffffffffffffffffffffffff168373ffffffffffffffffffffffffffffffffffffffff161415801561296957508273ffffffffffffffffffffffffffffffffffffffff168473ffffffffffffffffffffffffffffffffffffffff16148061292a57506129298484610ff0565b5b8061296857508273ffffffffffffffffffffffffffffffffffffffff16612950836111f3565b73ffffffffffffffffffffffffffffffffffffffff16145b5b90509392505050565b6000604051905090565b600080fd5b600080fd5b60007fffffffff0000000000000000000000000000000000000000000000000000000082169050919050565b6129bb81612986565b81146129c657600080fd5b50565b6000813590506129d8816129b2565b92915050565b6000602082840312156129f4576129f361297c565b5b6000612a02848285016129c9565b91505092915050565b60008115159050919050565b612a2081612a0b565b82525050565b6000602082019050612a3b6000830184612a17565b92915050565b600081519050919050565b600082825260208201905092915050565b60005b83811015612a7b578082015181840152602081019050612a60565b60008484015250505050565b6000601f19601f8301169050919050565b6000612aa382612a41565b612aad8185612a4c565b9350612abd818560208601612a5d565b612ac681612a87565b840191505092915050565b60006020820190508181036000830152612aeb8184612a98565b905092915050565b6000819050919050565b612b0681612af3565b8114612b1157600080fd5b50565b600081359050612b2381612afd565b92915050565b600060208284031215612b3f57612b3e61297c565b5b6000612b4d84828501612b14565b91505092915050565b600073ffffffffffffffffffffffffffffffffffffffff82169050919050565b6000612b8182612b56565b9050919050565b612b9181612b76565b82525050565b6000602082019050612bac6000830184612b88565b92915050565b612bbb81612b76565b8114612bc657600080fd5b50565b600081359050612bd881612bb2565b92915050565b60008060408385031215612bf557612bf461297c565b5b6000612c0385828601612bc9565b9250506020612c1485828601612b14565b9150509250929050565b612c2781612af3565b82525050565b6000602082019050612c426000830184612c1e565b92915050565b600080600060608486031215612c6157612c6061297c565b5b6000612c6f86828701612bc9565b9350506020612c8086828701612bc9565b9250506040612c9186828701612b14565b9150509250925092565b600060208284031215612cb157612cb061297c565b5b6000612cbf84828501612bc9565b91505092915050565b600080fd5b600080fd5b7f4e487b7100000000000000000000000000000000000000000000000000000000600052604160045260246000fd5b612d0a82612a87565b810181811067ffffffffffffffff82111715612d2957612d28612cd2565b5b80604052505050565b6000612d3c612972565b9050612d488282612d01565b919050565b600067ffffffffffffffff821115612d6857612d67612cd2565b5b612d7182612a87565b9050602081019050919050565b82818337600083830152505050565b6000612da0612d9b84612d4d565b612d32565b905082815260208101848484011115612dbc57612dbb612ccd565b5b612dc7848285612d7e565b509392505050565b600082601f830112612de457612de3612cc8565b5b8135612df4848260208601612d8d565b91505092915050565b60008060408385031215612e1457612e1361297c565b5b6000612e2285828601612bc9565b925050602083013567ffffffffffffffff811115612e4357612e42612981565b5b612e4f85828601612dcf565b9150509250929050565b612e6281612a0b565b8114612e6d57600080fd5b50565b600081359050612e7f81612e59565b92915050565b60008060408385031215612e9c57612e9b61297c565b5b6000612eaa85828601612e70565b9250506020612ebb85828601612e70565b9150509250929050565b60008060408385031215612edc57612edb61297c565b5b6000612eea85828601612bc9565b9250506020612efb85828601612e70565b9150509250929050565b600067ffffffffffffffff821115612f2057612f1f612cd2565b5b612f2982612a87565b9050602081019050919050565b6000612f49612f4484612f05565b612d32565b905082815260208101848484011115612f6557612f64612ccd565b5b612f70848285612d7e565b509392505050565b600082601f830112612f8d57612f8c612cc8565b5b8135612f9d848260208601612f36565b91505092915050565b60008060008060808587031215612fc057612fbf61297c565b5b6000612fce87828801612bc9565b9450506020612fdf87828801612bc9565b9350506040612ff087828801612b14565b925050606085013567ffffffffffffffff81111561301157613010612981565b5b61301d87828801612f78565b91505092959194509250565b600080604083850312156130405761303f61297c565b5b600061304e85828601612b14565b925050602061305f85828601612b14565b9150509250929050565b600080604083850312156130805761307f61297c565b5b600061308e85828601612bc9565b925050602061309f85828601612bc9565b9150509250929050565b7f4e487b7100000000000000000000000000000000000000000000000000000000600052602260045260246000fd5b600060028204905060018216806130f057607f821691505b602082108103613103576131026130a9565b5b50919050565b600060608201905061311e6000830186612b88565b61312b6020830185612c1e565b6131386040830184612b88565b949350505050565b60006040820190506131556000830185612b88565b6131626020830184612c1e565b9392505050565b600081905092915050565b50565b6000613184600083613169565b915061318f82613174565b600082019050919050565b60006131a582613177565b9150819050919050565b7f5472616e73666572206661696c65642e00000000000000000000000000000000600082015250565b60006131e5601083612a4c565b91506131f0826131af565b602082019050919050565b60006020820190508181036000830152613214816131d8565b9050919050565b7f4e487b7100000000000000000000000000000000000000000000000000000000600052603260045260246000fd5b7f4e487b7100000000000000000000000000000000000000000000000000000000600052601160045260246000fd5b600061328482612af3565b91507fffffffffffffffffffffffffffffffffffffffffffffffffffffffffffffffff82036132b6576132b561324a565b5b600182019050919050565b60006040820190506132d66000830185612c1e565b6132e36020830184612b88565b9392505050565b600081519050919050565b600082825260208201905092915050565b6000613311826132ea565b61331b81856132f5565b935061332b818560208601612a5d565b61333481612a87565b840191505092915050565b60006080820190506133546000830187612b88565b6133616020830186612b88565b61336e6040830185612c1e565b81810360608301526133808184613306565b905095945050505050565b60008151905061339a816129b2565b92915050565b6000602082840312156133b6576133b561297c565b5b60006133c48482850161338b565b91505092915050565b600081905092915050565b60006133e382612a41565b6133ed81856133cd565b93506133fd818560208601612a5d565b80840191505092915050565b600061341582856133d8565b915061342182846133d8565b91508190509392505050565b60008190508160005260206000209050919050565b60006020601f8301049050919050565b600082821b905092915050565b60006008830261348f7fffffffffffffffffffffffffffffffffffffffffffffffffffffffffffffffff82613452565b6134998683613452565b95508019841693508086168417925050509392505050565b6000819050919050565b60006134d66134d16134cc84612af3565b6134b1565b612af3565b9050919050565b6000819050919050565b6134f0836134bb565b6135046134fc826134dd565b84845461345f565b825550505050565b600090565b61351961350c565b6135248184846134e7565b505050565b5b818110156135485761353d600082613511565b60018101905061352a565b5050565b601f82111561358d5761355e8161342d565b61356784613442565b81016020851015613576578190505b61358a61358285613442565b830182613529565b50505b505050565b600082821c905092915050565b60006135b060001984600802613592565b1980831691505092915050565b60006135c9838361359f565b9150826002028217905092915050565b6135e282612a41565b67ffffffffffffffff8111156135fb576135fa612cd2565b5b61360582546130d8565b61361082828561354c565b600060209050601f8311600181146136435760008415613631578287015190505b61363b85826135bd565b8655506136a3565b601f1984166136518661342d565b60005b8281101561367957848901518255600182019150602085019450602081019050613654565b868310156136965784890151613692601f89168261359f565b8355505b6001600288020188555050505b505050505050565b7f4e487b7100000000000000000000000000000000000000000000000000000000600052601260045260246000fd5b60006136e582612af3565b91506136f083612af3565b92508282039050818111156137085761370761324a565b5b92915050565b7f4e487b7100000000000000000000000000000000000000000000000000000000600052603160045260246000fdfea2646970667358221220c8a12fca3443f9395ee29ee383982e94d5ed1f0b4775beb36f79ea985839d51064736f6c63430008180033",
  "linkReferences": {},
  "deployedLinkReferences": {}
}